:040000008A110D282C
:10000800FE00030EF4000408F5000A08F6008A1141
:10001800CE288A110F28F001F101F201F3018301C2
:100028008A1116288A1133218A11831203139E011B
:10003800831603139E0183120313061286120613F6
:100048008613C7309F058B171F14F31B2C282D28E8
:1000580041287308803AFF0080307F02031D36284C
:10006800CD307202031839283A2841288312031325
:10007800061286120613861329287308803AFF0091
:1000880080307F02031D4A28CD307202031C4D28A0
:100098004E2862287308803AFF0081307F02031DD2
:1000A80057289930720203185A285B28622883124D
:1000B8000313061686120613861329287308803A36
:1000C800FF0081307F02031D6B2899307202031CE8
:1000D8006E286F2883287308803AFF0082307F02D9
:1000E800031D78286630720203187B287C28832831
:1000F8008312031306168616061386132928730817
:10010800803AFF0082307F02031D8C28663072021D
:10011800031C8F289028A4287308803AFF00833096
:100128007F02031D99283230720203189C289D28EB
:10013800A428831203130616861606178613292881
:100148007308803AFF0083307F02031DAD283230E8
:100158007202031CB028B128C5287308803AFF0032
:1001680084307F02031DBA28003072020318BD28AC
:10017800BE28C52883120313061686160617861787
:1001880029288312031306128612061386132928B8
:100198008A110D28831203130C1FD328D428E628AC
:1001A800831603130C1FD928DA28E62883120313B1
:1001B8001E08F300831603131E08F20083120313AC
:1001C8000C131F150B1EE928EA282A298B1CED2879
:1001D800EE282A298B100130F0070318F10A0030A5
:1001E800F107043070067104031DFB28FC2815294B
:1001F800F001F1011529C73083129F0528298312C0
:100208001F08C73908389F00282983121F08C739D3
:1002180010389F00282983121F08C73918389F00F3
:1002280028297108003A03191A2928297008003A60
:100238000319FF28013A03190329033A0319092965
:10024800013A03190F2928292929000076088A006C
:1002580075088400740E8300FE0E7E0E0900831656
:1002680003138117011781120112811101148114DE
:1002780001158B130B178B120B168B110B118B108F
:100288000B100C178C120C128C110C118C100C10FA
:10029800831203130C1383160313101090101011FC
:1002A80090111012901270308F048F150F150F10C7
:1002B8008F100F309B00831203131F179F131F15F6
:1002C8001F10831603139F171F131F129F122F301F
:0802D8008500013086000800DA
:08400000FF3FFF3FFF3FFF3FC0
:04400E00F82FFF3F49
:00000001FF
