:020000000A28CC
:10000800FE00030EF1000A08F2000F280B28F30186
:10001800F401830140280B1D1228132839288B1E50
:100028001628172839280B117308740403191D287A
:100038001E282C280130F00070088312031395073E
:10004800150A031D282829283928F301F40139281D
:1000580001308312031395021508031D342835282F
:1000680039280130F3000030F40072088A00710E5C
:100078008300FE0E7E0E0900F301F40183160313BC
:100088008E15F7308600FF308500FF3092008030F3
:100098008312031395000C309700971692011214DF
:1000A8009214121583160313811281110111811400
:1000B80001108B018B178B168312031381016328A0
:0200C8000A2804
:08400000FF3FFF3FFF3FFF3FC0
:02400E00783FF9
:00000001FF
