:020000000A28CC
:10000800FE00030EF4000A08F50011280B28F00181
:10001800F101F201F3018301A628831603130C1CD6
:10002800162817283A28831203130C1C1C281D288D
:100038003A280C100130F2070318F30A0030F307CE
:10004800023072067304031D2A282B283A28F2016D
:10005800F3010310861C031403183328372883126E
:10006800031386143A288312031386108B1E3D2827
:100078003E285F280B1D412842285F280B110130BC
:10008800F0070318F10A0030F10770037104031D2B
:100098004E284F285F28F001F10103108312061D36
:1000A8000314031858285C288312031306155F28C5
:1000B8008312031306110B1E6228632876288B1CF3
:1000C8006628672876288B1003108312861D031470
:1000D80003186F2873288312031386157628831252
:1000E8000313861175088A00740E8300FE0E7E0EB7
:1000F8000900831603138117011781160112811154
:100108000110811001110B178B160B160B118B1098
:100118000C110C14831203130C1010169016901166
:1001280090101014831603138E15831203131F14D3
:100138009F141F1530308316031385000130860085
:100148008B1708007D208312031386100611861171
:04015800AC280A289D
:08400000FF3FFF3FFF3FFF3FC0
:02400E00F03F81
:00000001FF
