:10000000FE2F00308A000408840A820700344F342F
:080010004B340D340A340034B6
:100DCE00F000831203130C1EED2EEE2EE82E70088B
:100DDE0099000800831603138E15803083120313B7
:100DEE00A6002530A70033270730831203139F0474
:100DFE008316031385140800F12683120313851836
:100E0E00092F0A2F042F01301A270230FB008630DB
:100E1E00FA009930F900F90B122FFA0B122FFB0B77
:100E2E00122F042F0028F200831203130C1E202F02
:100E3E00212F1B2F2A2F720884000120E726013054
:100E4E00F1007108F207720884000120003A031DB8
:100E5E00312F322F222F0800831603138614061506
:100E6E001815831203132608F0002708F100F2016B
:100E7E00F3010030F7000330F600D030F50090306B
:100E8E00F40061277008FF3E83160313990098162D
:100E9E008312031398178316031318138312031365
:100EAE0018138316031318128312031318168B17B5
:100EBE000B17080083120313A101F31F672F682F6E
:100ECE00752FF009F109F209F309F00A0319F10A75
:100EDE000319F20A0319F30AA101A10AF71F782FC9
:100EEE00792F882FF409F509F609F709F40A031981
:100EFE00F50A0319F60A0319F70A0130F800780803
:100F0E00A1060030A5000030A4000030A300003080
:100F1E00A20073087204710470040319972F982F9E
:100F2E00E52FA001A00AA82F0130F8000310F00D44
:100F3E00F10DF20DF30DF80B9D2F0130F80078082E
:100F4E00A007F31FAB2FAC2F9B2F0130F80003101F
:100F5E00A20DA30DA40DA50DF80BAE2F73087702ED
:100F6E00031DC32F72087602031DC32F710875026D
:100F7E00031DC32F70087402031CC62FC72FD62F54
:100F8E007008F4027108031C710FF5027208031C3D
:100F9E00720FF6027308031C730FF702221401304E
:100FAE000310F30CF20CF10CF00CFF3E031DD72FC7
:100FBE000130A002031DE42FE52FAC2F21080319E9
:100FCE00E92FEA2FF52FA209A309A409A509A20A60
:100FDE000319A30A0319A40A0319A50A2508F30085
:100FEE002408F2002308F1002208F0000800830113
:020FFE00032FBF
:08400000FF3FFF3FFF3FFF3FC0
:02400E00F83F79
:00000001FF
